{
    "_format": "hh-sol-artifact-1",
    "contractName": "Crowdfunding",
    "sourceName": "contracts/Crowdfunding.sol",
    "abi": [
        {
            "inputs": [
                {
                    "internalType": "uint256",
                    "name": "project_tax",
                    "type": "uint256"
                }
            ],
            "stateMutability": "nonpayable",
            "type": "constructor"
        },
        {
            "anonymous": false,
            "inputs": [
                {
                    "indexed": false,
                    "internalType": "uint256",
                    "name": "id",
                    "type": "uint256"
                },
                {
                    "indexed": false,
                    "internalType": "string",
                    "name": "actionType",
                    "type": "string"
                },
                {
                    "indexed": true,
                    "internalType": "address",
                    "name": "executor",
                    "type": "address"
                },
                {
                    "indexed": false,
                    "internalType": "uint256",
                    "name": "timestamp",
                    "type": "uint256"
                }
            ],
            "name": "Action",
            "type": "event"
        },
        {
            "inputs": [
                {
                    "internalType": "uint256",
                    "name": "_id",
                    "type": "uint256"
                }
            ],
            "name": "backProject",
            "outputs": [
                {
                    "internalType": "bool",
                    "name": "",
                    "type": "bool"
                }
            ],
            "stateMutability": "payable",
            "type": "function"
        },
        {
            "inputs": [],
            "name": "balance",
            "outputs": [
                {
                    "internalType": "uint256",
                    "name": "",
                    "type": "uint256"
                }
            ],
            "stateMutability": "view",
            "type": "function"
        },
        {
            "inputs": [
                {
                    "internalType": "uint256",
                    "name": "_tax",
                    "type": "uint256"
                }
            ],
            "name": "changeTax",
            "outputs": [],
            "stateMutability": "nonpayable",
            "type": "function"
        },
        {
            "inputs": [
                {
                    "internalType": "string",
                    "name": "_title",
                    "type": "string"
                },
                {
                    "internalType": "string",
                    "name": "_description",
                    "type": "string"
                },
                {
                    "internalType": "string",
                    "name": "image_url",
                    "type": "string"
                },
                {
                    "internalType": "uint256",
                    "name": "_target",
                    "type": "uint256"
                },
                {
                    "internalType": "uint256",
                    "name": "expires_at",
                    "type": "uint256"
                }
            ],
            "name": "createProject",
            "outputs": [
                {
                    "internalType": "bool",
                    "name": "",
                    "type": "bool"
                }
            ],
            "stateMutability": "nonpayable",
            "type": "function"
        },
        {
            "inputs": [
                {
                    "internalType": "uint256",
                    "name": "_id",
                    "type": "uint256"
                }
            ],
            "name": "deleteProject",
            "outputs": [
                {
                    "internalType": "bool",
                    "name": "",
                    "type": "bool"
                }
            ],
            "stateMutability": "nonpayable",
            "type": "function"
        },
        {
            "inputs": [
                {
                    "internalType": "uint256",
                    "name": "id",
                    "type": "uint256"
                }
            ],
            "name": "getBackers",
            "outputs": [
                {
                    "components": [
                        {
                            "internalType": "address",
                            "name": "owner",
                            "type": "address"
                        },
                        {
                            "internalType": "uint256",
                            "name": "contribution",
                            "type": "uint256"
                        },
                        {
                            "internalType": "bool",
                            "name": "refunded",
                            "type": "bool"
                        },
                        {
                            "internalType": "uint256",
                            "name": "timestamp",
                            "type": "uint256"
                        }
                    ],
                    "internalType": "struct Crowdfunding.backerStruct[]",
                    "name": "",
                    "type": "tuple[]"
                }
            ],
            "stateMutability": "view",
            "type": "function"
        },
        {
            "inputs": [
                {
                    "internalType": "uint256",
                    "name": "id",
                    "type": "uint256"
                }
            ],
            "name": "getProject",
            "outputs": [
                {
                    "components": [
                        {
                            "internalType": "address",
                            "name": "owner",
                            "type": "address"
                        },
                        {
                            "internalType": "uint256",
                            "name": "id",
                            "type": "uint256"
                        },
                        {
                            "internalType": "string",
                            "name": "title",
                            "type": "string"
                        },
                        {
                            "internalType": "string",
                            "name": "description",
                            "type": "string"
                        },
                        {
                            "internalType": "string",
                            "name": "imageUrl",
                            "type": "string"
                        },
                        {
                            "internalType": "uint256",
                            "name": "target",
                            "type": "uint256"
                        },
                        {
                            "internalType": "uint256",
                            "name": "raised",
                            "type": "uint256"
                        },
                        {
                            "internalType": "uint256",
                            "name": "timestamp",
                            "type": "uint256"
                        },
                        {
                            "internalType": "uint256",
                            "name": "expiresAt",
                            "type": "uint256"
                        },
                        {
                            "internalType": "uint256",
                            "name": "backers",
                            "type": "uint256"
                        },
                        {
                            "internalType": "enum Crowdfunding.statusEnum",
                            "name": "status",
                            "type": "uint8"
                        }
                    ],
                    "internalType": "struct Crowdfunding.projectStruct",
                    "name": "",
                    "type": "tuple"
                }
            ],
            "stateMutability": "view",
            "type": "function"
        },
        {
            "inputs": [],
            "name": "getProjects",
            "outputs": [
                {
                    "components": [
                        {
                            "internalType": "address",
                            "name": "owner",
                            "type": "address"
                        },
                        {
                            "internalType": "uint256",
                            "name": "id",
                            "type": "uint256"
                        },
                        {
                            "internalType": "string",
                            "name": "title",
                            "type": "string"
                        },
                        {
                            "internalType": "string",
                            "name": "description",
                            "type": "string"
                        },
                        {
                            "internalType": "string",
                            "name": "imageUrl",
                            "type": "string"
                        },
                        {
                            "internalType": "uint256",
                            "name": "target",
                            "type": "uint256"
                        },
                        {
                            "internalType": "uint256",
                            "name": "raised",
                            "type": "uint256"
                        },
                        {
                            "internalType": "uint256",
                            "name": "timestamp",
                            "type": "uint256"
                        },
                        {
                            "internalType": "uint256",
                            "name": "expiresAt",
                            "type": "uint256"
                        },
                        {
                            "internalType": "uint256",
                            "name": "backers",
                            "type": "uint256"
                        },
                        {
                            "internalType": "enum Crowdfunding.statusEnum",
                            "name": "status",
                            "type": "uint8"
                        }
                    ],
                    "internalType": "struct Crowdfunding.projectStruct[]",
                    "name": "",
                    "type": "tuple[]"
                }
            ],
            "stateMutability": "view",
            "type": "function"
        },
        {
            "inputs": [],
            "name": "owner",
            "outputs": [
                {
                    "internalType": "address",
                    "name": "",
                    "type": "address"
                }
            ],
            "stateMutability": "view",
            "type": "function"
        },
        {
            "inputs": [],
            "name": "projectCount",
            "outputs": [
                {
                    "internalType": "uint256",
                    "name": "",
                    "type": "uint256"
                }
            ],
            "stateMutability": "view",
            "type": "function"
        },
        {
            "inputs": [
                {
                    "internalType": "uint256",
                    "name": "id",
                    "type": "uint256"
                }
            ],
            "name": "projectPayout",
            "outputs": [
                {
                    "internalType": "bool",
                    "name": "",
                    "type": "bool"
                }
            ],
            "stateMutability": "nonpayable",
            "type": "function"
        },
        {
            "inputs": [],
            "name": "projectTax",
            "outputs": [
                {
                    "internalType": "uint256",
                    "name": "",
                    "type": "uint256"
                }
            ],
            "stateMutability": "view",
            "type": "function"
        },
        {
            "inputs": [
                {
                    "internalType": "uint256",
                    "name": "id",
                    "type": "uint256"
                }
            ],
            "name": "requestRefund",
            "outputs": [
                {
                    "internalType": "bool",
                    "name": "",
                    "type": "bool"
                }
            ],
            "stateMutability": "nonpayable",
            "type": "function"
        },
        {
            "inputs": [],
            "name": "stats",
            "outputs": [
                {
                    "internalType": "uint256",
                    "name": "totalProjects",
                    "type": "uint256"
                },
                {
                    "internalType": "uint256",
                    "name": "totalBackings",
                    "type": "uint256"
                },
                {
                    "internalType": "uint256",
                    "name": "totalDonations",
                    "type": "uint256"
                }
            ],
            "stateMutability": "view",
            "type": "function"
        },
        {
            "inputs": [
                {
                    "internalType": "uint256",
                    "name": "id",
                    "type": "uint256"
                },
                {
                    "internalType": "string",
                    "name": "_title",
                    "type": "string"
                },
                {
                    "internalType": "string",
                    "name": "_description",
                    "type": "string"
                },
                {
                    "internalType": "string",
                    "name": "image_url",
                    "type": "string"
                },
                {
                    "internalType": "uint256",
                    "name": "expires_at",
                    "type": "uint256"
                }
            ],
            "name": "updateProject",
            "outputs": [
                {
                    "internalType": "bool",
                    "name": "",
                    "type": "bool"
                }
            ],
            "stateMutability": "nonpayable",
            "type": "function"
        }
    ],
    "bytecode": "0x60806040523480156200001157600080fd5b50604051620039f3380380620039f38339818101604052810190620000379190620000cd565b336000806101000a81548173ffffffffffffffffffffffffffffffffffffffff021916908373ffffffffffffffffffffffffffffffffffffffff16021790555060006001819055508060028190555050620000ff565b600080fd5b6000819050919050565b620000a78162000092565b8114620000b357600080fd5b50565b600081519050620000c7816200009c565b92915050565b600060208284031215620000e657620000e56200008d565b5b6000620000f684828501620000b6565b91505092915050565b6138e4806200010f6000396000f3fe6080604052600436106100e85760003560e01c8063a4b2409e1161008a578063d80528ae11610059578063d80528ae14610323578063dcc6012814610350578063e922590b1461037b578063f0f3f2c8146103b8576100e8565b8063a4b2409e14610253578063b69ef8a814610290578063c9168b72146102bb578063d24cd3ec146102f8576100e8565b80634cd0cb28116100c65780634cd0cb281461017e5780638da5cb5b146101bb5780639a3fa8c7146101e65780639f39a19414610223576100e8565b8063056c29ee146100ed57806336fbad261461012a5780633e45c8af14610155575b600080fd5b3480156100f957600080fd5b50610114600480360381019061010f9190612297565b6103f5565b6040516101219190612381565b60405180910390f35b34801561013657600080fd5b5061013f610913565b60405161014c91906123ab565b60405180910390f35b34801561016157600080fd5b5061017c600480360381019061017791906123c6565b610919565b005b34801561018a57600080fd5b506101a560048036038101906101a091906123c6565b6109b1565b6040516101b29190612381565b60405180910390f35b3480156101c757600080fd5b506101d0610bae565b6040516101dd9190612434565b60405180910390f35b3480156101f257600080fd5b5061020d6004803603810190610208919061244f565b610bd2565b60405161021a9190612381565b60405180910390f35b61023d600480360381019061023891906123c6565b610e01565b60405161024a9190612381565b60405180910390f35b34801561025f57600080fd5b5061027a600480360381019061027591906123c6565b6112b6565b6040516102879190612381565b60405180910390f35b34801561029c57600080fd5b506102a5611414565b6040516102b291906123ab565b60405180910390f35b3480156102c757600080fd5b506102e260048036038101906102dd91906123c6565b61141a565b6040516102ef919061264f565b60405180910390f35b34801561030457600080fd5b5061030d611511565b60405161031a91906123ab565b60405180910390f35b34801561032f57600080fd5b50610338611517565b60405161034793929190612671565b60405180910390f35b34801561035c57600080fd5b5061036561152f565b604051610372919061295d565b60405180910390f35b34801561038757600080fd5b506103a2600480360381019061039d91906123c6565b611812565b6040516103af9190612381565b60405180910390f35b3480156103c457600080fd5b506103df60048036038101906103da91906123c6565b6119c7565b6040516103ec9190612a7c565b60405180910390f35b60008086511161043a576040517f08c379a000000000000000000000000000000000000000000000000000000000815260040161043190612afb565b60405180910390fd5b600085511161047e576040517f08c379a000000000000000000000000000000000000000000000000000000000815260040161047590612b67565b60405180910390fd5b60008451116104c2576040517f08c379a00000000000000000000000000000000000000000000000000000000081526004016104b990612bd3565b60405180910390fd5b60008311610505576040517f08c379a00000000000000000000000000000000000000000000000000000000081526004016104fc90612c65565b60405180910390fd5b428211610547576040517f08c379a000000000000000000000000000000000000000000000000000000000815260040161053e90612cd1565b60405180910390fd5b61054f612085565b60015481602001818152505033816000019073ffffffffffffffffffffffffffffffffffffffff16908173ffffffffffffffffffffffffffffffffffffffff16815250508681604001819052508581606001819052508481608001819052508281610100018181525050838160a0018181525050428160e001818152505060048190806001815401808255809150506001900390600052602060002090600b020160009091909190915060008201518160000160006101000a81548173ffffffffffffffffffffffffffffffffffffffff021916908373ffffffffffffffffffffffffffffffffffffffff16021790555060208201518160010155604082015181600201908161065f9190612efd565b5060608201518160030190816106759190612efd565b50608082015181600401908161068b9190612efd565b5060a0820151816005015560c0820151816006015560e082015181600701556101008201518160080155610120820151816009015561014082015181600a0160006101000a81548160ff021916908360048111156106ec576106eb612753565b5b021790555050506001600a6000600154815260200190815260200160002060006101000a81548160ff021916908315150217905550600860003373ffffffffffffffffffffffffffffffffffffffff1673ffffffffffffffffffffffffffffffffffffffff1681526020019081526020016000208190806001815401808255809150506001900390600052602060002090600b020160009091909190915060008201518160000160006101000a81548173ffffffffffffffffffffffffffffffffffffffff021916908373ffffffffffffffffffffffffffffffffffffffff1602179055506020820151816001015560408201518160020190816107f09190612efd565b5060608201518160030190816108069190612efd565b50608082015181600401908161081c9190612efd565b5060a0820151816005015560c0820151816006015560e082015181600701556101008201518160080155610120820151816009015561014082015181600a0160006101000a81548160ff0219169083600481111561087d5761087c612753565b5b021790555050506005600001600081548092919061089a90612ffe565b91905055503373ffffffffffffffffffffffffffffffffffffffff167faee8e5d3bbb2f71a951b5632cee20f7ac487b9f8ab4f66a236f7694b13af7c6a600160008154809291906108ea90612ffe565b91905055426040516108fd929190613092565b60405180910390a2600191505095945050505050565b60015481565b60008054906101000a900473ffffffffffffffffffffffffffffffffffffffff1673ffffffffffffffffffffffffffffffffffffffff163373ffffffffffffffffffffffffffffffffffffffff16146109a7576040517f08c379a000000000000000000000000000000000000000000000000000000000815260040161099e9061311a565b60405180910390fd5b8060028190555050565b60008060048111156109c6576109c5612753565b5b600483815481106109da576109d961313a565b5b90600052602060002090600b0201600a0160009054906101000a900460ff166004811115610a0b57610a0a612753565b5b14610a4b576040517f08c379a0000000000000000000000000000000000000000000000000000000008152600401610a42906131b5565b60405180910390fd5b3373ffffffffffffffffffffffffffffffffffffffff1660048381548110610a7657610a7561313a565b5b90600052602060002090600b020160000160009054906101000a900473ffffffffffffffffffffffffffffffffffffffff1673ffffffffffffffffffffffffffffffffffffffff1614610afe576040517f08c379a0000000000000000000000000000000000000000000000000000000008152600401610af590613221565b60405180910390fd5b600160048381548110610b1457610b1361313a565b5b90600052602060002090600b0201600a0160006101000a81548160ff02191690836004811115610b4757610b46612753565b5b0217905550610b5582611ce7565b3373ffffffffffffffffffffffffffffffffffffffff167faee8e5d3bbb2f71a951b5632cee20f7ac487b9f8ab4f66a236f7694b13af7c6a8342604051610b9d92919061328d565b60405180910390a260019050919050565b60008054906101000a900473ffffffffffffffffffffffffffffffffffffffff1681565b600080855111610c17576040517f08c379a0000000000000000000000000000000000000000000000000000000008152600401610c0e90612afb565b60405180910390fd5b6000845111610c5b576040517f08c379a0000000000000000000000000000000000000000000000000000000008152600401610c5290612b67565b60405180910390fd5b6000835111610c9f576040517f08c379a0000000000000000000000000000000000000000000000000000000008152600401610c9690612bd3565b60405180910390fd5b428211610ce1576040517f08c379a0000000000000000000000000000000000000000000000000000000008152600401610cd890612cd1565b60405180910390fd5b8460048781548110610cf657610cf561313a565b5b90600052602060002090600b02016002019081610d139190612efd565b508360048781548110610d2957610d2861313a565b5b90600052602060002090600b02016003019081610d469190612efd565b508260048781548110610d5c57610d5b61313a565b5b90600052602060002090600b02016004019081610d799190612efd565b508160048781548110610d8f57610d8e61313a565b5b90600052602060002090600b0201600801819055503373ffffffffffffffffffffffffffffffffffffffff167faee8e5d3bbb2f71a951b5632cee20f7ac487b9f8ab4f66a236f7694b13af7c6a8742604051610dec929190613315565b60405180910390a26001905095945050505050565b600060011515600a600084815260200190815260200160002060009054906101000a900460ff16151514610e6a576040517f08c379a0000000000000000000000000000000000000000000000000000000008152600401610e619061339d565b60405180910390fd5b60003411610ead576040517f08c379a0000000000000000000000000000000000000000000000000000000008152600401610ea49061342f565b60405180910390fd5b60006004811115610ec157610ec0612753565b5b60048381548110610ed557610ed461313a565b5b90600052602060002090600b0201600a0160009054906101000a900460ff166004811115610f0657610f05612753565b5b14610f46576040517f08c379a0000000000000000000000000000000000000000000000000000000008152600401610f3d9061349b565b60405180910390fd5b600160056001016000828254610f5c91906134bb565b925050819055503460056002016000828254610f7891906134bb565b925050819055503460048381548110610f9457610f9361313a565b5b90600052602060002090600b02016006016000828254610fb491906134bb565b92505081905550600160048381548110610fd157610fd061313a565b5b90600052602060002090600b02016009016000828254610ff191906134bb565b925050819055506009600083815260200190815260200160002060405180608001604052803373ffffffffffffffffffffffffffffffffffffffff16815260200134815260200160001515815260200142815250908060018154018082558091505060019003906000526020600020906004020160009091909190915060008201518160000160006101000a81548173ffffffffffffffffffffffffffffffffffffffff021916908373ffffffffffffffffffffffffffffffffffffffff1602179055506020820151816001015560408201518160020160006101000a81548160ff0219169083151502179055506060820151816003015550503373ffffffffffffffffffffffffffffffffffffffff167faee8e5d3bbb2f71a951b5632cee20f7ac487b9f8ab4f66a236f7694b13af7c6a834260405161113392919061353b565b60405180910390a26004828154811061114f5761114e61313a565b5b90600052602060002090600b020160050154600483815481106111755761117461313a565b5b90600052602060002090600b0201600601541061122057600482815481106111a05761119f61313a565b5b90600052602060002090600b020160060154600360008282546111c391906134bb565b9250508190555060048083815481106111df576111de61313a565b5b90600052602060002090600b0201600a0160006101000a81548160ff0219169083600481111561121257611211612753565b5b0217905550600190506112b1565b600482815481106112345761123361313a565b5b90600052602060002090600b02016008015442106112ac576002600483815481106112625761126161313a565b5b90600052602060002090600b0201600a0160006101000a81548160ff0219169083600481111561129557611294612753565b5b02179055506112a382611ce7565b600190506112b1565b600190505b919050565b6000600260048111156112cc576112cb612753565b5b600483815481106112e0576112df61313a565b5b90600052602060002090600b0201600a0160009054906101000a900460ff16600481111561131157611310612753565b5b14158061137557506001600481111561132d5761132c612753565b5b600483815481106113415761134061313a565b5b90600052602060002090600b0201600a0160009054906101000a900460ff16600481111561137257611371612753565b5b14155b6113b4576040517f08c379a00000000000000000000000000000000000000000000000000000000081526004016113ab906135e9565b60405180910390fd5b6002600483815481106113ca576113c961313a565b5b90600052602060002090600b0201600a0160006101000a81548160ff021916908360048111156113fd576113fc612753565b5b021790555061140b82611ce7565b60019050919050565b60035481565b606060096000838152602001908152602001600020805480602002602001604051908101604052809291908181526020016000905b8282101561150657838290600052602060002090600402016040518060800160405290816000820160009054906101000a900473ffffffffffffffffffffffffffffffffffffffff1673ffffffffffffffffffffffffffffffffffffffff1673ffffffffffffffffffffffffffffffffffffffff168152602001600182015481526020016002820160009054906101000a900460ff161515151581526020016003820154815250508152602001906001019061144f565b505050509050919050565b60025481565b60058060000154908060010154908060020154905083565b60606004805480602002602001604051908101604052809291908181526020016000905b8282101561180957838290600052602060002090600b0201604051806101600160405290816000820160009054906101000a900473ffffffffffffffffffffffffffffffffffffffff1673ffffffffffffffffffffffffffffffffffffffff1673ffffffffffffffffffffffffffffffffffffffff168152602001600182015481526020016002820180546115e790612d20565b80601f016020809104026020016040519081016040528092919081815260200182805461161390612d20565b80156116605780601f1061163557610100808354040283529160200191611660565b820191906000526020600020905b81548152906001019060200180831161164357829003601f168201915b5050505050815260200160038201805461167990612d20565b80601f01602080910402602001604051908101604052809291908181526020018280546116a590612d20565b80156116f25780601f106116c7576101008083540402835291602001916116f2565b820191906000526020600020905b8154815290600101906020018083116116d557829003601f168201915b5050505050815260200160048201805461170b90612d20565b80601f016020809104026020016040519081016040528092919081815260200182805461173790612d20565b80156117845780601f1061175957610100808354040283529160200191611784565b820191906000526020600020905b81548152906001019060200180831161176757829003601f168201915b505050505081526020016005820154815260200160068201548152602001600782015481526020016008820154815260200160098201548152602001600a820160009054906101000a900460ff1660048111156117e4576117e3612753565b5b60048111156117f6576117f5612753565b5b8152505081526020019060010190611553565b50505050905090565b600060048081111561182757611826612753565b5b6004838154811061183b5761183a61313a565b5b90600052602060002090600b0201600a0160009054906101000a900460ff16600481111561186c5761186b612753565b5b146118ac576040517f08c379a00000000000000000000000000000000000000000000000000000000081526004016118a390613655565b60405180910390fd5b600482815481106118c0576118bf61313a565b5b90600052602060002090600b020160000160009054906101000a900473ffffffffffffffffffffffffffffffffffffffff1673ffffffffffffffffffffffffffffffffffffffff163373ffffffffffffffffffffffffffffffffffffffff161480611976575060008054906101000a900473ffffffffffffffffffffffffffffffffffffffff1673ffffffffffffffffffffffffffffffffffffffff163373ffffffffffffffffffffffffffffffffffffffff16145b6119b5576040517f08c379a00000000000000000000000000000000000000000000000000000000081526004016119ac90613221565b60405180910390fd5b6119be82611e82565b60019050919050565b6119cf612085565b600a600083815260200190815260200160002060009054906101000a900460ff16611a2f576040517f08c379a0000000000000000000000000000000000000000000000000000000008152600401611a26906136c1565b60405180910390fd5b60048281548110611a4357611a4261313a565b5b90600052602060002090600b0201604051806101600160405290816000820160009054906101000a900473ffffffffffffffffffffffffffffffffffffffff1673ffffffffffffffffffffffffffffffffffffffff1673ffffffffffffffffffffffffffffffffffffffff16815260200160018201548152602001600282018054611acd90612d20565b80601f0160208091040260200160405190810160405280929190818152602001828054611af990612d20565b8015611b465780601f10611b1b57610100808354040283529160200191611b46565b820191906000526020600020905b815481529060010190602001808311611b2957829003601f168201915b50505050508152602001600382018054611b5f90612d20565b80601f0160208091040260200160405190810160405280929190818152602001828054611b8b90612d20565b8015611bd85780601f10611bad57610100808354040283529160200191611bd8565b820191906000526020600020905b815481529060010190602001808311611bbb57829003601f168201915b50505050508152602001600482018054611bf190612d20565b80601f0160208091040260200160405190810160405280929190818152602001828054611c1d90612d20565b8015611c6a5780601f10611c3f57610100808354040283529160200191611c6a565b820191906000526020600020905b815481529060010190602001808311611c4d57829003601f168201915b505050505081526020016005820154815260200160068201548152602001600782015481526020016008820154815260200160098201548152602001600a820160009054906101000a900460ff166004811115611cca57611cc9612753565b5b6004811115611cdc57611cdb612753565b5b815250509050919050565b60005b6009600083815260200190815260200160002080549050811015611e7e576000600960008481526020019081526020016000208281548110611d2f57611d2e61313a565b5b906000526020600020906004020160000160009054906101000a900473ffffffffffffffffffffffffffffffffffffffff1690506000600960008581526020019081526020016000208381548110611d8a57611d8961313a565b5b9060005260206000209060040201600101549050611da8828261200a565b6001600960008681526020019081526020016000208481548110611dcf57611dce61313a565b5b906000526020600020906004020160020160006101000a81548160ff02191690831515021790555042600960008681526020019081526020016000208481548110611e1d57611e1c61313a565b5b90600052602060002090600402016003018190555060056001016000815480929190611e48906136e1565b91905055508060056002016000828254611e62919061370a565b9250508190555050508080611e7690612ffe565b915050611cea565b5050565b600060048281548110611e9857611e9761313a565b5b90600052602060002090600b02016006015490506000606460025483611ebe919061373e565b611ec891906137af565b9050611ef460008054906101000a900473ffffffffffffffffffffffffffffffffffffffff168261200a565b611f4e60048481548110611f0b57611f0a61313a565b5b90600052602060002090600b020160000160009054906101000a900473ffffffffffffffffffffffffffffffffffffffff168284611f49919061370a565b61200a565b600360048481548110611f6457611f6361313a565b5b90600052602060002090600b0201600a0160006101000a81548160ff02191690836004811115611f9757611f96612753565b5b02179055508160036000828254611fae919061370a565b925050819055503373ffffffffffffffffffffffffffffffffffffffff167faee8e5d3bbb2f71a951b5632cee20f7ac487b9f8ab4f66a236f7694b13af7c6a8442604051611ffd92919061382c565b60405180910390a2505050565b60008273ffffffffffffffffffffffffffffffffffffffff168260405161203090613899565b60006040518083038185875af1925050503d806000811461206d576040519150601f19603f3d011682016040523d82523d6000602084013e612072565b606091505b505090508061208057600080fd5b505050565b604051806101600160405280600073ffffffffffffffffffffffffffffffffffffffff1681526020016000815260200160608152602001606081526020016060815260200160008152602001600081526020016000815260200160008152602001600081526020016000600481111561210157612100612753565b5b81525090565b6000604051905090565b600080fd5b600080fd5b600080fd5b600080fd5b6000601f19601f8301169050919050565b7f4e487b7100000000000000000000000000000000000000000000000000000000600052604160045260246000fd5b61216e82612125565b810181811067ffffffffffffffff8211171561218d5761218c612136565b5b80604052505050565b60006121a0612107565b90506121ac8282612165565b919050565b600067ffffffffffffffff8211156121cc576121cb612136565b5b6121d582612125565b9050602081019050919050565b82818337600083830152505050565b60006122046121ff846121b1565b612196565b9050828152602081018484840111156122205761221f612120565b5b61222b8482856121e2565b509392505050565b600082601f8301126122485761224761211b565b5b81356122588482602086016121f1565b91505092915050565b6000819050919050565b61227481612261565b811461227f57600080fd5b50565b6000813590506122918161226b565b92915050565b600080600080600060a086880312156122b3576122b2612111565b5b600086013567ffffffffffffffff8111156122d1576122d0612116565b5b6122dd88828901612233565b955050602086013567ffffffffffffffff8111156122fe576122fd612116565b5b61230a88828901612233565b945050604086013567ffffffffffffffff81111561232b5761232a612116565b5b61233788828901612233565b935050606061234888828901612282565b925050608061235988828901612282565b9150509295509295909350565b60008115159050919050565b61237b81612366565b82525050565b60006020820190506123966000830184612372565b92915050565b6123a581612261565b82525050565b60006020820190506123c0600083018461239c565b92915050565b6000602082840312156123dc576123db612111565b5b60006123ea84828501612282565b91505092915050565b600073ffffffffffffffffffffffffffffffffffffffff82169050919050565b600061241e826123f3565b9050919050565b61242e81612413565b82525050565b60006020820190506124496000830184612425565b92915050565b600080600080600060a0868803121561246b5761246a612111565b5b600061247988828901612282565b955050602086013567ffffffffffffffff81111561249a57612499612116565b5b6124a688828901612233565b945050604086013567ffffffffffffffff8111156124c7576124c6612116565b5b6124d388828901612233565b935050606086013567ffffffffffffffff8111156124f4576124f3612116565b5b61250088828901612233565b925050608061251188828901612282565b9150509295509295909350565b600081519050919050565b600082825260208201905092915050565b6000819050602082019050919050565b61255381612413565b82525050565b61256281612261565b82525050565b61257181612366565b82525050565b60808201600082015161258d600085018261254a565b5060208201516125a06020850182612559565b5060408201516125b36040850182612568565b5060608201516125c66060850182612559565b50505050565b60006125d88383612577565b60808301905092915050565b6000602082019050919050565b60006125fc8261251e565b6126068185612529565b93506126118361253a565b8060005b8381101561264257815161262988826125cc565b9750612634836125e4565b925050600181019050612615565b5085935050505092915050565b6000602082019050818103600083015261266981846125f1565b905092915050565b6000606082019050612686600083018661239c565b612693602083018561239c565b6126a0604083018461239c565b949350505050565b600081519050919050565b600082825260208201905092915050565b6000819050602082019050919050565b600081519050919050565b600082825260208201905092915050565b60005b8381101561270e5780820151818401526020810190506126f3565b60008484015250505050565b6000612725826126d4565b61272f81856126df565b935061273f8185602086016126f0565b61274881612125565b840191505092915050565b7f4e487b7100000000000000000000000000000000000000000000000000000000600052602160045260246000fd5b6005811061279357612792612753565b5b50565b60008190506127a482612782565b919050565b60006127b482612796565b9050919050565b6127c4816127a9565b82525050565b6000610160830160008301516127e3600086018261254a565b5060208301516127f66020860182612559565b506040830151848203604086015261280e828261271a565b91505060608301518482036060860152612828828261271a565b91505060808301518482036080860152612842828261271a565b91505060a083015161285760a0860182612559565b5060c083015161286a60c0860182612559565b5060e083015161287d60e0860182612559565b50610100830151612892610100860182612559565b506101208301516128a7610120860182612559565b506101408301516128bc6101408601826127bb565b508091505092915050565b60006128d383836127ca565b905092915050565b6000602082019050919050565b60006128f3826126a8565b6128fd81856126b3565b93508360208202850161290f856126c4565b8060005b8581101561294b578484038952815161292c85826128c7565b9450612937836128db565b925060208a01995050600181019050612913565b50829750879550505050505092915050565b6000602082019050818103600083015261297781846128e8565b905092915050565b600061016083016000830151612998600086018261254a565b5060208301516129ab6020860182612559565b50604083015184820360408601526129c3828261271a565b915050606083015184820360608601526129dd828261271a565b915050608083015184820360808601526129f7828261271a565b91505060a0830151612a0c60a0860182612559565b5060c0830151612a1f60c0860182612559565b5060e0830151612a3260e0860182612559565b50610100830151612a47610100860182612559565b50610120830151612a5c610120860182612559565b50610140830151612a716101408601826127bb565b508091505092915050565b60006020820190508181036000830152612a96818461297f565b905092915050565b600082825260208201905092915050565b7f656e7465722076616c6964207469746c65000000000000000000000000000000600082015250565b6000612ae5601183612a9e565b9150612af082612aaf565b602082019050919050565b60006020820190508181036000830152612b1481612ad8565b9050919050565b7f456e7465722076616c6964204465736372697074696f6e200000000000000000600082015250565b6000612b51601883612a9e565b9150612b5c82612b1b565b602082019050919050565b60006020820190508181036000830152612b8081612b44565b9050919050565b7f456e7465722056616c69642075726c0000000000000000000000000000000000600082015250565b6000612bbd600f83612a9e565b9150612bc882612b87565b602082019050919050565b60006020820190508181036000830152612bec81612bb0565b9050919050565b7f205461726765742073686f756c642062652067726561746572207468616e202060008201527f3020000000000000000000000000000000000000000000000000000000000000602082015250565b6000612c4f602283612a9e565b9150612c5a82612bf3565b604082019050919050565b60006020820190508181036000830152612c7e81612c42565b9050919050565b7f496e76616c696420646174650000000000000000000000000000000000000000600082015250565b6000612cbb600c83612a9e565b9150612cc682612c85565b602082019050919050565b60006020820190508181036000830152612cea81612cae565b9050919050565b7f4e487b7100000000000000000000000000000000000000000000000000000000600052602260045260246000fd5b60006002820490506001821680612d3857607f821691505b602082108103612d4b57612d4a612cf1565b5b50919050565b60008190508160005260206000209050919050565b60006020601f8301049050919050565b600082821b905092915050565b600060088302612db37fffffffffffffffffffffffffffffffffffffffffffffffffffffffffffffffff82612d76565b612dbd8683612d76565b95508019841693508086168417925050509392505050565b6000819050919050565b6000612dfa612df5612df084612261565b612dd5565b612261565b9050919050565b6000819050919050565b612e1483612ddf565b612e28612e2082612e01565b848454612d83565b825550505050565b600090565b612e3d612e30565b612e48818484612e0b565b505050565b5b81811015612e6c57612e61600082612e35565b600181019050612e4e565b5050565b601f821115612eb157612e8281612d51565b612e8b84612d66565b81016020851015612e9a578190505b612eae612ea685612d66565b830182612e4d565b50505b505050565b600082821c905092915050565b6000612ed460001984600802612eb6565b1980831691505092915050565b6000612eed8383612ec3565b9150826002028217905092915050565b612f06826126d4565b67ffffffffffffffff811115612f1f57612f1e612136565b5b612f298254612d20565b612f34828285612e70565b600060209050601f831160018114612f675760008415612f55578287015190505b612f5f8582612ee1565b865550612fc7565b601f198416612f7586612d51565b60005b82811015612f9d57848901518255600182019150602085019450602081019050612f78565b86831015612fba5784890151612fb6601f891682612ec3565b8355505b6001600288020188555050505b505050505050565b7f4e487b7100000000000000000000000000000000000000000000000000000000600052601160045260246000fd5b600061300982612261565b91507fffffffffffffffffffffffffffffffffffffffffffffffffffffffffffffffff820361303b5761303a612fcf565b5b600182019050919050565b7f70726f6a65637420637265617465640000000000000000000000000000000000600082015250565b600061307c600f83612a9e565b915061308782613046565b602082019050919050565b60006060820190506130a7600083018561239c565b81810360208301526130b88161306f565b90506130c7604083018461239c565b9392505050565b7f6f776e6572207265736572766564206f6e6c7900000000000000000000000000600082015250565b6000613104601383612a9e565b915061310f826130ce565b602082019050919050565b60006020820190508181036000830152613133816130f7565b9050919050565b7f4e487b7100000000000000000000000000000000000000000000000000000000600052603260045260246000fd5b7f70726f6a65637420616c72656164792065787069726564000000000000000000600082015250565b600061319f601783612a9e565b91506131aa82613169565b602082019050919050565b600060208201905081810360008301526131ce81613192565b9050919050565b7f556e617574686f72697365642055736572000000000000000000000000000000600082015250565b600061320b601183612a9e565b9150613216826131d5565b602082019050919050565b6000602082019050818103600083015261323a816131fe565b9050919050565b7f50726f6a6563742044656c657465640000000000000000000000000000000000600082015250565b6000613277600f83612a9e565b915061328282613241565b602082019050919050565b60006060820190506132a2600083018561239c565b81810360208301526132b38161326a565b90506132c2604083018461239c565b9392505050565b7f70726f6a65637420757064617465640000000000000000000000000000000000600082015250565b60006132ff600f83612a9e565b915061330a826132c9565b602082019050919050565b600060608201905061332a600083018561239c565b818103602083015261333b816132f2565b905061334a604083018461239c565b9392505050565b7f50726f6a65637420646f65736e27742065786973740000000000000000000000600082015250565b6000613387601583612a9e565b915061339282613351565b602082019050919050565b600060208201905081810360008301526133b68161337a565b9050919050565b7f416d6f756e742073686f756c64206265206d6f7265207468616e20302065746860008201527f6572732000000000000000000000000000000000000000000000000000000000602082015250565b6000613419602483612a9e565b9150613424826133bd565b604082019050919050565b600060208201905081810360008301526134488161340c565b9050919050565b7f50726f6a65637420636c6f736564000000000000000000000000000000000000600082015250565b6000613485600e83612a9e565b91506134908261344f565b602082019050919050565b600060208201905081810360008301526134b481613478565b9050919050565b60006134c682612261565b91506134d183612261565b92508282019050808211156134e9576134e8612fcf565b5b92915050565b7f50726f6a656374204261636b6564000000000000000000000000000000000000600082015250565b6000613525600e83612a9e565b9150613530826134ef565b602082019050919050565b6000606082019050613550600083018561239c565b818103602083015261356181613518565b9050613570604083018461239c565b9392505050565b7f50726f6a656374206e6f74206d61726b656420617320726576657274206f722060008201527f64656c6574650000000000000000000000000000000000000000000000000000602082015250565b60006135d3602683612a9e565b91506135de82613577565b604082019050919050565b60006020820190508181036000830152613602816135c6565b9050919050565b7f4e6f7420417070726f7665642079657400000000000000000000000000000000600082015250565b600061363f601083612a9e565b915061364a82613609565b602082019050919050565b6000602082019050818103600083015261366e81613632565b9050919050565b7f50726f6a656374206e6f7420666f756e64000000000000000000000000000000600082015250565b60006136ab601183612a9e565b91506136b682613675565b602082019050919050565b600060208201905081810360008301526136da8161369e565b9050919050565b60006136ec82612261565b9150600082036136ff576136fe612fcf565b5b600182039050919050565b600061371582612261565b915061372083612261565b925082820390508181111561373857613737612fcf565b5b92915050565b600061374982612261565b915061375483612261565b925082820261376281612261565b9150828204841483151761377957613778612fcf565b5b5092915050565b7f4e487b7100000000000000000000000000000000000000000000000000000000600052601260045260246000fd5b60006137ba82612261565b91506137c583612261565b9250826137d5576137d4613780565b5b828204905092915050565b7f416d6f756e7420686173206265656e20506169646f7574200000000000000000600082015250565b6000613816601883612a9e565b9150613821826137e0565b602082019050919050565b6000606082019050613841600083018561239c565b818103602083015261385281613809565b9050613861604083018461239c565b9392505050565b600081905092915050565b50565b6000613883600083613868565b915061388e82613873565b600082019050919050565b60006138a482613876565b915081905091905056fea26469706673582212201715f05a7bfcc58743963ea634be74bd747927edd12c1495e0bc04957712b65664736f6c63430008130033",
    "linkReferences": {},
    "deployedLinkReferences": {}
}